{
  "_format": "hh-sol-artifact-1",
  "contractName": "CertificatesRouter",
  "sourceName": "contracts/CertificatesRouter.sol",
  "abi": [
    {
      "inputs": [],
      "stateMutability": "nonpayable",
      "type": "constructor"
    },
    {
      "anonymous": false,
      "inputs": [
        {
          "indexed": false,
          "internalType": "address",
          "name": "to",
          "type": "address"
        },
        {
          "indexed": false,
          "internalType": "string",
          "name": "ipfsHash",
          "type": "string"
        },
        {
          "indexed": false,
          "internalType": "string",
          "name": "description",
          "type": "string"
        }
      ],
      "name": "Created",
      "type": "event"
    },
    {
      "anonymous": false,
      "inputs": [
        {
          "indexed": false,
          "internalType": "address",
          "name": "to",
          "type": "address"
        },
        {
          "indexed": false,
          "internalType": "string",
          "name": "ipfsHash",
          "type": "string"
        },
        {
          "indexed": false,
          "internalType": "string",
          "name": "description",
          "type": "string"
        }
      ],
      "name": "Edited",
      "type": "event"
    },
    {
      "anonymous": false,
      "inputs": [
        {
          "indexed": true,
          "internalType": "bytes32",
          "name": "role",
          "type": "bytes32"
        },
        {
          "indexed": true,
          "internalType": "bytes32",
          "name": "previousAdminRole",
          "type": "bytes32"
        },
        {
          "indexed": true,
          "internalType": "bytes32",
          "name": "newAdminRole",
          "type": "bytes32"
        }
      ],
      "name": "RoleAdminChanged",
      "type": "event"
    },
    {
      "anonymous": false,
      "inputs": [
        {
          "indexed": true,
          "internalType": "bytes32",
          "name": "role",
          "type": "bytes32"
        },
        {
          "indexed": true,
          "internalType": "address",
          "name": "account",
          "type": "address"
        },
        {
          "indexed": true,
          "internalType": "address",
          "name": "sender",
          "type": "address"
        }
      ],
      "name": "RoleGranted",
      "type": "event"
    },
    {
      "anonymous": false,
      "inputs": [
        {
          "indexed": true,
          "internalType": "bytes32",
          "name": "role",
          "type": "bytes32"
        },
        {
          "indexed": true,
          "internalType": "address",
          "name": "account",
          "type": "address"
        },
        {
          "indexed": true,
          "internalType": "address",
          "name": "sender",
          "type": "address"
        }
      ],
      "name": "RoleRevoked",
      "type": "event"
    },
    {
      "inputs": [],
      "name": "DEFAULT_ADMIN_ROLE",
      "outputs": [
        {
          "internalType": "bytes32",
          "name": "",
          "type": "bytes32"
        }
      ],
      "stateMutability": "view",
      "type": "function"
    },
    {
      "inputs": [],
      "name": "MANAGER_ROLE",
      "outputs": [
        {
          "internalType": "bytes32",
          "name": "",
          "type": "bytes32"
        }
      ],
      "stateMutability": "view",
      "type": "function"
    },
    {
      "inputs": [],
      "name": "USER_ROLE",
      "outputs": [
        {
          "internalType": "bytes32",
          "name": "",
          "type": "bytes32"
        }
      ],
      "stateMutability": "view",
      "type": "function"
    },
    {
      "inputs": [],
      "name": "contractOwner",
      "outputs": [
        {
          "internalType": "address",
          "name": "",
          "type": "address"
        }
      ],
      "stateMutability": "view",
      "type": "function"
    },
    {
      "inputs": [
        {
          "internalType": "address",
          "name": "to",
          "type": "address"
        },
        {
          "internalType": "string",
          "name": "ipfsHash",
          "type": "string"
        },
        {
          "internalType": "string",
          "name": "description",
          "type": "string"
        }
      ],
      "name": "createCertificate",
      "outputs": [
        {
          "internalType": "bool",
          "name": "",
          "type": "bool"
        }
      ],
      "stateMutability": "nonpayable",
      "type": "function"
    },
    {
      "inputs": [
        {
          "internalType": "uint256",
          "name": "id",
          "type": "uint256"
        }
      ],
      "name": "getCertificate",
      "outputs": [
        {
          "internalType": "address",
          "name": "to",
          "type": "address"
        },
        {
          "internalType": "string",
          "name": "ipfsHash",
          "type": "string"
        },
        {
          "internalType": "string",
          "name": "description",
          "type": "string"
        }
      ],
      "stateMutability": "view",
      "type": "function"
    },
    {
      "inputs": [
        {
          "internalType": "bytes32",
          "name": "role",
          "type": "bytes32"
        }
      ],
      "name": "getRoleAdmin",
      "outputs": [
        {
          "internalType": "bytes32",
          "name": "",
          "type": "bytes32"
        }
      ],
      "stateMutability": "view",
      "type": "function"
    },
    {
      "inputs": [
        {
          "internalType": "bytes32",
          "name": "role",
          "type": "bytes32"
        },
        {
          "internalType": "address",
          "name": "account",
          "type": "address"
        }
      ],
      "name": "grantRole",
      "outputs": [],
      "stateMutability": "nonpayable",
      "type": "function"
    },
    {
      "inputs": [
        {
          "internalType": "bytes32",
          "name": "role",
          "type": "bytes32"
        },
        {
          "internalType": "address",
          "name": "account",
          "type": "address"
        }
      ],
      "name": "hasRole",
      "outputs": [
        {
          "internalType": "bool",
          "name": "",
          "type": "bool"
        }
      ],
      "stateMutability": "view",
      "type": "function"
    },
    {
      "inputs": [
        {
          "internalType": "uint256",
          "name": "id",
          "type": "uint256"
        }
      ],
      "name": "isActive",
      "outputs": [
        {
          "internalType": "bool",
          "name": "",
          "type": "bool"
        }
      ],
      "stateMutability": "view",
      "type": "function"
    },
    {
      "inputs": [],
      "name": "lastId",
      "outputs": [
        {
          "internalType": "uint256",
          "name": "",
          "type": "uint256"
        }
      ],
      "stateMutability": "view",
      "type": "function"
    },
    {
      "inputs": [
        {
          "internalType": "bytes32",
          "name": "role",
          "type": "bytes32"
        },
        {
          "internalType": "address",
          "name": "account",
          "type": "address"
        }
      ],
      "name": "renounceRole",
      "outputs": [],
      "stateMutability": "nonpayable",
      "type": "function"
    },
    {
      "inputs": [
        {
          "internalType": "bytes32",
          "name": "role",
          "type": "bytes32"
        },
        {
          "internalType": "address",
          "name": "account",
          "type": "address"
        }
      ],
      "name": "revokeRole",
      "outputs": [],
      "stateMutability": "nonpayable",
      "type": "function"
    },
    {
      "inputs": [
        {
          "internalType": "uint256",
          "name": "id",
          "type": "uint256"
        }
      ],
      "name": "setActive",
      "outputs": [],
      "stateMutability": "nonpayable",
      "type": "function"
    },
    {
      "inputs": [
        {
          "internalType": "uint256",
          "name": "id",
          "type": "uint256"
        },
        {
          "internalType": "address",
          "name": "to",
          "type": "address"
        },
        {
          "internalType": "string",
          "name": "ipfsHash",
          "type": "string"
        },
        {
          "internalType": "string",
          "name": "description",
          "type": "string"
        }
      ],
      "name": "setCertificate",
      "outputs": [
        {
          "internalType": "bool",
          "name": "",
          "type": "bool"
        }
      ],
      "stateMutability": "nonpayable",
      "type": "function"
    },
    {
      "inputs": [
        {
          "internalType": "uint256",
          "name": "id",
          "type": "uint256"
        }
      ],
      "name": "setInactive",
      "outputs": [],
      "stateMutability": "nonpayable",
      "type": "function"
    },
    {
      "inputs": [
        {
          "internalType": "bytes4",
          "name": "interfaceId",
          "type": "bytes4"
        }
      ],
      "name": "supportsInterface",
      "outputs": [
        {
          "internalType": "bool",
          "name": "",
          "type": "bool"
        }
      ],
      "stateMutability": "view",
      "type": "function"
    },
    {
      "inputs": [],
      "name": "version",
      "outputs": [
        {
          "internalType": "uint256",
          "name": "",
          "type": "uint256"
        }
      ],
      "stateMutability": "pure",
      "type": "function"
    }
  ],
  "bytecode": "0x608060405234801561001057600080fd5b5061001c600033610033565b600180546001600160a01b031916331790556100df565b61003d8282610041565b5050565b6000828152602081815260408083206001600160a01b038516845290915290205460ff1661003d576000828152602081815260408083206001600160a01b03851684529091529020805460ff1916600117905561009b3390565b6001600160a01b0316816001600160a01b0316837f2f8788117e7eff1d82e926ec794901d17c78024a50270940304540a733656f0d60405160405180910390a45050565b6118b9806100ee6000396000f3fe608060405234801561001057600080fd5b50600436106101165760003560e01c806382afd23b116100a2578063c1292cc311610071578063c1292cc314610253578063ce606ee01461025c578063d547741f14610287578063ec87621c1461029a578063f0e36115146102af57600080fd5b806382afd23b1461021257806391d1485414610225578063961ad38814610238578063a217fddf1461024b57600080fd5b8063248a9ca3116100e9578063248a9ca3146101a05780632f2ff15d146101c357806336568abe146101d657806351640fee146101e957806354fd4d501461020b57600080fd5b806301ffc9a71461011b578063023563d81461014357806303d3ed2314610158578063131191611461016b575b600080fd5b61012e61012936600461144e565b6102c2565b60405190151581526020015b60405180910390f35b610156610151366004611478565b6102f9565b005b610156610166366004611478565b610487565b6101927f2db9fd3d099848027c2383d0a083396f6c41510d7acfd92adc99b6cffcf31e9681565b60405190815260200161013a565b6101926101ae366004611478565b60009081526020819052604090206001015490565b6101566101d13660046114ad565b610615565b6101566101e43660046114ad565b61063f565b6101fc6101f7366004611478565b6106c2565b60405161013a93929190611535565b6001610192565b61012e610220366004611478565b61097d565b61012e6102333660046114ad565b610af3565b61012e610246366004611618565b610b1c565b610192600081565b61019260025481565b60015461026f906001600160a01b031681565b6040516001600160a01b03909116815260200161013a565b6101566102953660046114ad565b610d8a565b61019260008051602061186483398151915281565b61012e6102bd366004611696565b610e22565b60006001600160e01b03198216637965db0b60e01b14806102f357506301ffc9a760e01b6001600160e01b03198316145b92915050565b600080516020611864833981519152610311816110f9565b61031961141b565b60008381526003602090815260409182902082516080810190935280546001600160a01b0316835260018101805491928401916103559061170a565b80601f01602080910402602001604051908101604052809291908181526020018280546103819061170a565b80156103ce5780601f106103a3576101008083540402835291602001916103ce565b820191906000526020600020905b8154815290600101906020018083116103b157829003601f168201915b505050505081526020016002820180546103e79061170a565b80601f01602080910402602001604051908101604052809291908181526020018280546104139061170a565b80156104605780601f1061043557610100808354040283529160200191610460565b820191906000526020600020905b81548152906001019060200180831161044357829003601f168201915b50505091835250506003919091015460ff1615156020909101526001606090910152505050565b60008051602061186483398151915261049f816110f9565b6104a761141b565b60008381526003602090815260409182902082516080810190935280546001600160a01b0316835260018101805491928401916104e39061170a565b80601f016020809104026020016040519081016040528092919081815260200182805461050f9061170a565b801561055c5780601f106105315761010080835404028352916020019161055c565b820191906000526020600020905b81548152906001019060200180831161053f57829003601f168201915b505050505081526020016002820180546105759061170a565b80601f01602080910402602001604051908101604052809291908181526020018280546105a19061170a565b80156105ee5780601f106105c3576101008083540402835291602001916105ee565b820191906000526020600020905b8154815290600101906020018083116105d157829003601f168201915b50505091835250506003919091015460ff1615156020909101526000606090910152505050565b600082815260208190526040902060010154610630816110f9565b61063a8383611106565b505050565b6001600160a01b03811633146106b45760405162461bcd60e51b815260206004820152602f60248201527f416363657373436f6e74726f6c3a2063616e206f6e6c792072656e6f756e636560448201526e103937b632b9903337b91039b2b63360891b60648201526084015b60405180910390fd5b6106be828261118a565b5050565b60006060806106cf61141b565b60008581526003602090815260409182902082516080810190935280546001600160a01b03168352600181018054919284019161070b9061170a565b80601f01602080910402602001604051908101604052809291908181526020018280546107379061170a565b80156107845780601f1061075957610100808354040283529160200191610784565b820191906000526020600020905b81548152906001019060200180831161076757829003601f168201915b5050505050815260200160028201805461079d9061170a565b80601f01602080910402602001604051908101604052809291908181526020018280546107c99061170a565b80156108165780601f106107eb57610100808354040283529160200191610816565b820191906000526020600020905b8154815290600101906020018083116107f957829003601f168201915b505050918352505060039182015460ff16151560209182015260008881529190526040902080546001820180549394506001600160a01b039091169290916002019082906108639061170a565b80601f016020809104026020016040519081016040528092919081815260200182805461088f9061170a565b80156108dc5780601f106108b1576101008083540402835291602001916108dc565b820191906000526020600020905b8154815290600101906020018083116108bf57829003601f168201915b505050505091508080546108ef9061170a565b80601f016020809104026020016040519081016040528092919081815260200182805461091b9061170a565b80156109685780601f1061093d57610100808354040283529160200191610968565b820191906000526020600020905b81548152906001019060200180831161094b57829003601f168201915b50505050509050935093509350509193909250565b600061098761141b565b60008381526003602090815260409182902082516080810190935280546001600160a01b0316835260018101805491928401916109c39061170a565b80601f01602080910402602001604051908101604052809291908181526020018280546109ef9061170a565b8015610a3c5780601f10610a1157610100808354040283529160200191610a3c565b820191906000526020600020905b815481529060010190602001808311610a1f57829003601f168201915b50505050508152602001600282018054610a559061170a565b80601f0160208091040260200160405190810160405280929190818152602001828054610a819061170a565b8015610ace5780601f10610aa357610100808354040283529160200191610ace565b820191906000526020600020905b815481529060010190602001808311610ab157829003601f168201915b50505091835250506003919091015460ff161515602090910152606001519392505050565b6000918252602082815260408084206001600160a01b0393909316845291905290205460ff1690565b6000600080516020611864833981519152610b36816110f9565b6000868152600360208190526040909120015460ff16610bbe5760405162461bcd60e51b815260206004820152603d60248201527f436572746966696361746573526f757465723a2063657274696669636174652060448201527f6973206e6f20616374697665206e6f7720746f206368616e676520697400000060648201526084016106ab565b610bc661141b565b60008781526003602090815260409182902082516080810190935280546001600160a01b031683526001810180549192840191610c029061170a565b80601f0160208091040260200160405190810160405280929190818152602001828054610c2e9061170a565b8015610c7b5780601f10610c5057610100808354040283529160200191610c7b565b820191906000526020600020905b815481529060010190602001808311610c5e57829003601f168201915b50505050508152602001600282018054610c949061170a565b80601f0160208091040260200160405190810160405280929190818152602001828054610cc09061170a565b8015610d0d5780601f10610ce257610100808354040283529160200191610d0d565b820191906000526020600020905b815481529060010190602001808311610cf057829003601f168201915b50505091835250506003919091015460ff1615156020918201526001600160a01b038816825281018690526040808201869052519091507f85bb7fef2dc14e650a24a5d7d69994c95f057e8823e5871931b21b2c3cecac3590610d7590889088908890611535565b60405180910390a15060019695505050505050565b600082815260208190526040902060010154610da5816110f9565b6001600160a01b038216331415610e185760405162461bcd60e51b815260206004820152603160248201527f57726170706564416363416363657373436f6e74726f6c3a2063616e206f6e6c6044820152703c903932bb37b5b2903737ba1039b2b63360791b60648201526084016106ab565b61063a83836111ef565b6000600080516020611864833981519152610e3c816110f9565b600484604051610e4c9190611745565b9081526040519081900360200190205460ff1615610ee05760405162461bcd60e51b815260206004820152604560248201527f436572746966696361746573526f757465723a2073756368206120636572746960448201527f6669636174652068617320616c7265616479206265656e20697373756564206260648201526465666f726560d81b608482015260a4016106ab565b600254610eee906001611777565b600255610ef961141b565b60025460009081526003602090815260409182902082516080810190935280546001600160a01b031683526001810180549192840191610f389061170a565b80601f0160208091040260200160405190810160405280929190818152602001828054610f649061170a565b8015610fb15780601f10610f8657610100808354040283529160200191610fb1565b820191906000526020600020905b815481529060010190602001808311610f9457829003601f168201915b50505050508152602001600282018054610fca9061170a565b80601f0160208091040260200160405190810160405280929190818152602001828054610ff69061170a565b80156110435780601f1061101857610100808354040283529160200191611043565b820191906000526020600020905b81548152906001019060200180831161102657829003601f168201915b50505091835250506003919091015460ff1615156020918201526001600160a01b038816825281018690526040808201869052600160608301819052905191925090600490611093908890611745565b908152604051908190036020018120805492151560ff19909316929092179091557f56fa331c7af04e2be71bc8d0274c25d2b23b441cf7ea4dd2fe7fcd4172bf601c906110e590889088908890611535565b60405180910390a150600195945050505050565b6111038133611214565b50565b6111108282610af3565b6106be576000828152602081815260408083206001600160a01b03851684529091529020805460ff191660011790556111463390565b6001600160a01b0316816001600160a01b0316837f2f8788117e7eff1d82e926ec794901d17c78024a50270940304540a733656f0d60405160405180910390a45050565b6111948282610af3565b156106be576000828152602081815260408083206001600160a01b0385168085529252808320805460ff1916905551339285917ff6391f5c32d9c69d2a47ea670b442974b53935d1edc7fd64eb21e047a839171b9190a45050565b60008281526020819052604090206001015461120a816110f9565b61063a838361118a565b61121e8282610af3565b6106be57611236816001600160a01b03166014611278565b611241836020611278565b60405160200161125292919061178f565b60408051601f198184030181529082905262461bcd60e51b82526106ab91600401611804565b60606000611287836002611817565b611292906002611777565b67ffffffffffffffff8111156112aa576112aa611575565b6040519080825280601f01601f1916602001820160405280156112d4576020820181803683370190505b509050600360fc1b816000815181106112ef576112ef611836565b60200101906001600160f81b031916908160001a905350600f60fb1b8160018151811061131e5761131e611836565b60200101906001600160f81b031916908160001a9053506000611342846002611817565b61134d906001611777565b90505b60018111156113c5576f181899199a1a9b1b9c1cb0b131b232b360811b85600f166010811061138157611381611836565b1a60f81b82828151811061139757611397611836565b60200101906001600160f81b031916908160001a90535060049490941c936113be8161184c565b9050611350565b5083156114145760405162461bcd60e51b815260206004820181905260248201527f537472696e67733a20686578206c656e67746820696e73756666696369656e7460448201526064016106ab565b9392505050565b604051806080016040528060006001600160a01b0316815260200160608152602001606081526020016000151581525090565b60006020828403121561146057600080fd5b81356001600160e01b03198116811461141457600080fd5b60006020828403121561148a57600080fd5b5035919050565b80356001600160a01b03811681146114a857600080fd5b919050565b600080604083850312156114c057600080fd5b823591506114d060208401611491565b90509250929050565b60005b838110156114f45781810151838201526020016114dc565b83811115611503576000848401525b50505050565b600081518084526115218160208601602086016114d9565b601f01601f19169290920160200192915050565b6001600160a01b038416815260606020820181905260009061155990830185611509565b828103604084015261156b8185611509565b9695505050505050565b634e487b7160e01b600052604160045260246000fd5b600082601f83011261159c57600080fd5b813567ffffffffffffffff808211156115b7576115b7611575565b604051601f8301601f19908116603f011681019082821181831017156115df576115df611575565b816040528381528660208588010111156115f857600080fd5b836020870160208301376000602085830101528094505050505092915050565b6000806000806080858703121561162e57600080fd5b8435935061163e60208601611491565b9250604085013567ffffffffffffffff8082111561165b57600080fd5b6116678883890161158b565b9350606087013591508082111561167d57600080fd5b5061168a8782880161158b565b91505092959194509250565b6000806000606084860312156116ab57600080fd5b6116b484611491565b9250602084013567ffffffffffffffff808211156116d157600080fd5b6116dd8783880161158b565b935060408601359150808211156116f357600080fd5b506117008682870161158b565b9150509250925092565b600181811c9082168061171e57607f821691505b6020821081141561173f57634e487b7160e01b600052602260045260246000fd5b50919050565b600082516117578184602087016114d9565b9190910192915050565b634e487b7160e01b600052601160045260246000fd5b6000821982111561178a5761178a611761565b500190565b7f416363657373436f6e74726f6c3a206163636f756e74200000000000000000008152600083516117c78160178501602088016114d9565b7001034b99036b4b9b9b4b733903937b6329607d1b60179184019182015283516117f88160288401602088016114d9565b01602801949350505050565b6020815260006114146020830184611509565b600081600019048311821515161561183157611831611761565b500290565b634e487b7160e01b600052603260045260246000fd5b60008161185b5761185b611761565b50600019019056feaf290d8680820aad922855f39b306097b20e28774d6c1ad35a20325630c3a02ca26469706673582212207d395c80549f2f3ce42af997b46193d0be164d6ee2785f18fa31c60912b495bb64736f6c63430008090033",
  "linkReferences": {},
  "deployedLinkReferences": {}
}